{
  "_format": "hh-sol-artifact-1",
  "contractName": "EtaFactory",
  "sourceName": "contracts/swap/EtaFactory.sol",
  "abi": [
    {
      "inputs": [
        {
          "internalType": "address",
          "name": "feeToSetter_",
          "type": "address"
        }
      ],
      "stateMutability": "nonpayable",
      "type": "constructor"
    },
    {
      "anonymous": false,
      "inputs": [
        {
          "indexed": true,
          "internalType": "address",
          "name": "token0",
          "type": "address"
        },
        {
          "indexed": true,
          "internalType": "address",
          "name": "token1",
          "type": "address"
        },
        {
          "indexed": false,
          "internalType": "address",
          "name": "pair",
          "type": "address"
        },
        {
          "indexed": false,
          "internalType": "uint256",
          "name": "",
          "type": "uint256"
        }
      ],
      "name": "PairCreated",
      "type": "event"
    },
    {
      "inputs": [],
      "name": "INIT_CODE_PAIR_HASH",
      "outputs": [
        {
          "internalType": "bytes32",
          "name": "",
          "type": "bytes32"
        }
      ],
      "stateMutability": "view",
      "type": "function"
    },
    {
      "inputs": [
        {
          "internalType": "uint256",
          "name": "",
          "type": "uint256"
        }
      ],
      "name": "allPairs",
      "outputs": [
        {
          "internalType": "address",
          "name": "",
          "type": "address"
        }
      ],
      "stateMutability": "view",
      "type": "function"
    },
    {
      "inputs": [],
      "name": "allPairsLength",
      "outputs": [
        {
          "internalType": "uint256",
          "name": "",
          "type": "uint256"
        }
      ],
      "stateMutability": "view",
      "type": "function"
    },
    {
      "inputs": [
        {
          "internalType": "address",
          "name": "tokenA",
          "type": "address"
        },
        {
          "internalType": "address",
          "name": "tokenB",
          "type": "address"
        }
      ],
      "name": "createPair",
      "outputs": [
        {
          "internalType": "address",
          "name": "pair",
          "type": "address"
        }
      ],
      "stateMutability": "nonpayable",
      "type": "function"
    },
    {
      "inputs": [],
      "name": "creationCode",
      "outputs": [
        {
          "internalType": "bytes",
          "name": "",
          "type": "bytes"
        }
      ],
      "stateMutability": "view",
      "type": "function"
    },
    {
      "inputs": [],
      "name": "feeTo",
      "outputs": [
        {
          "internalType": "address",
          "name": "",
          "type": "address"
        }
      ],
      "stateMutability": "view",
      "type": "function"
    },
    {
      "inputs": [],
      "name": "feeToSetter",
      "outputs": [
        {
          "internalType": "address",
          "name": "",
          "type": "address"
        }
      ],
      "stateMutability": "view",
      "type": "function"
    },
    {
      "inputs": [
        {
          "internalType": "address",
          "name": "",
          "type": "address"
        },
        {
          "internalType": "address",
          "name": "",
          "type": "address"
        }
      ],
      "name": "getPair",
      "outputs": [
        {
          "internalType": "address",
          "name": "",
          "type": "address"
        }
      ],
      "stateMutability": "view",
      "type": "function"
    },
    {
      "inputs": [],
      "name": "migrator",
      "outputs": [
        {
          "internalType": "address",
          "name": "",
          "type": "address"
        }
      ],
      "stateMutability": "view",
      "type": "function"
    },
    {
      "inputs": [
        {
          "internalType": "address",
          "name": "_feeTo",
          "type": "address"
        }
      ],
      "name": "setFeeTo",
      "outputs": [],
      "stateMutability": "nonpayable",
      "type": "function"
    },
    {
      "inputs": [
        {
          "internalType": "address",
          "name": "_feeToSetter",
          "type": "address"
        }
      ],
      "name": "setFeeToSetter",
      "outputs": [],
      "stateMutability": "nonpayable",
      "type": "function"
    },
    {
      "inputs": [
        {
          "internalType": "address",
          "name": "_migrator",
          "type": "address"
        }
      ],
      "name": "setMigrator",
      "outputs": [],
      "stateMutability": "nonpayable",
      "type": "function"
    }
  ],
  "bytecode": "0x608060405234801561001057600080fd5b5060405161386d38038061386d8339818101604052602081101561003357600080fd5b5051600180546001600160a01b0319166001600160a01b0390921691909117905561380a806100636000396000f3fe608060405234801561001057600080fd5b50600436106100d45760003560e01c80637213edad11610081578063c9c653961161005b578063c9c653961461023e578063e6a4390514610279578063f46901ed146102b4576100d4565b80637213edad146101865780637cd07e4714610203578063a2e74af61461020b576100d4565b806323cf3118116100b257806323cf31181461012f578063574f2ba3146101645780635855a25a1461017e576100d4565b8063017e7e58146100d9578063094b74151461010a5780631e3dd18b14610112575b600080fd5b6100e16102e7565b6040805173ffffffffffffffffffffffffffffffffffffffff9092168252519081900360200190f35b6100e1610303565b6100e16004803603602081101561012857600080fd5b503561031f565b6101626004803603602081101561014557600080fd5b503573ffffffffffffffffffffffffffffffffffffffff16610353565b005b61016c610420565b60408051918252519081900360200190f35b61016c610426565b61018e6104d7565b6040805160208082528351818301528351919283929083019185019080838360005b838110156101c85781810151838201526020016101b0565b50505050905090810190601f1680156101f55780820380516001836020036101000a031916815260200191505b509250505060405180910390f35b6100e161051a565b6101626004803603602081101561022157600080fd5b503573ffffffffffffffffffffffffffffffffffffffff16610536565b6100e16004803603604081101561025457600080fd5b5073ffffffffffffffffffffffffffffffffffffffff81358116916020013516610603565b6100e16004803603604081101561028f57600080fd5b5073ffffffffffffffffffffffffffffffffffffffff81358116916020013516610a37565b610162600480360360208110156102ca57600080fd5b503573ffffffffffffffffffffffffffffffffffffffff16610a6a565b60005473ffffffffffffffffffffffffffffffffffffffff1681565b60015473ffffffffffffffffffffffffffffffffffffffff1681565b6004818154811061032c57fe5b60009182526020909120015473ffffffffffffffffffffffffffffffffffffffff16905081565b60015473ffffffffffffffffffffffffffffffffffffffff1633146103d957604080517f08c379a000000000000000000000000000000000000000000000000000000000815260206004820152601560248201527f5b54617520537761705d3a20464f5242494444454e0000000000000000000000604482015290519081900360640190fd5b600280547fffffffffffffffffffffffff00000000000000000000000000000000000000001673ffffffffffffffffffffffffffffffffffffffff92909216919091179055565b60045490565b60405161043560208201610b37565b6020820181038252601f19601f820116604052506040516020018082805190602001908083835b6020831061049957805182527fffffffffffffffffffffffffffffffffffffffffffffffffffffffffffffffe0909201916020918201910161045c565b6001836020036101000a0380198251168184511680821785525050505050509050019150506040516020818303038152906040528051906020012081565b6040516104e660208201610b37565b7fffffffffffffffffffffffffffffffffffffffffffffffffffffffffffffffe082820381018352601f9091011660405281565b60025473ffffffffffffffffffffffffffffffffffffffff1681565b60015473ffffffffffffffffffffffffffffffffffffffff1633146105bc57604080517f08c379a000000000000000000000000000000000000000000000000000000000815260206004820152601560248201527f5b54617520537761705d3a20464f5242494444454e0000000000000000000000604482015290519081900360640190fd5b600180547fffffffffffffffffffffffff00000000000000000000000000000000000000001673ffffffffffffffffffffffffffffffffffffffff92909216919091179055565b60008173ffffffffffffffffffffffffffffffffffffffff168373ffffffffffffffffffffffffffffffffffffffff1614156106a057604080517f08c379a000000000000000000000000000000000000000000000000000000000815260206004820152601f60248201527f5b54617520537761705d3a204944454e544943414c5f41444452455353455300604482015290519081900360640190fd5b6000808373ffffffffffffffffffffffffffffffffffffffff168573ffffffffffffffffffffffffffffffffffffffff16106106dd5783856106e0565b84845b909250905073ffffffffffffffffffffffffffffffffffffffff821661076757604080517f08c379a000000000000000000000000000000000000000000000000000000000815260206004820152601860248201527f5b54617520537761705d3a205a45524f5f414444524553530000000000000000604482015290519081900360640190fd5b73ffffffffffffffffffffffffffffffffffffffff82811660009081526003602090815260408083208585168452909152902054161561080857604080517f08c379a000000000000000000000000000000000000000000000000000000000815260206004820152601760248201527f5b54617520537761705d3a20504149525f455849535453000000000000000000604482015290519081900360640190fd5b60606040518060200161081a90610b37565b6020820181038252601f19601f82011660405250905060008383604051602001808373ffffffffffffffffffffffffffffffffffffffff1660601b81526014018273ffffffffffffffffffffffffffffffffffffffff1660601b815260140192505050604051602081830303815290604052805190602001209050808251602084016000f594508473ffffffffffffffffffffffffffffffffffffffff1663485cc95585856040518363ffffffff1660e01b8152600401808373ffffffffffffffffffffffffffffffffffffffff1681526020018273ffffffffffffffffffffffffffffffffffffffff16815260200192505050600060405180830381600087803b15801561092857600080fd5b505af115801561093c573d6000803e3d6000fd5b5050505073ffffffffffffffffffffffffffffffffffffffff84811660008181526003602081815260408084208987168086529083528185208054978d167fffffffffffffffffffffffff000000000000000000000000000000000000000098891681179091559383528185208686528352818520805488168517905560048054600181018255958190527f8a35acfbc15ff81a39ae7d344fd709f28e8600b4aa8c65c6b64bfe7fe36bd19b90950180549097168417909655925483519283529082015281517f0d3648bd0f6ba80134a33ba9275ac585d9d315f0ad8355cddefde31afa28d0e9929181900390910190a35050505092915050565b600360209081526000928352604080842090915290825290205473ffffffffffffffffffffffffffffffffffffffff1681565b60015473ffffffffffffffffffffffffffffffffffffffff163314610af057604080517f08c379a000000000000000000000000000000000000000000000000000000000815260206004820152601560248201527f5b54617520537761705d3a20464f5242494444454e0000000000000000000000604482015290519081900360640190fd5b600080547fffffffffffffffffffffffff00000000000000000000000000000000000000001673ffffffffffffffffffffffffffffffffffffffff92909216919091179055565b612c9080610b458339019056fe60806040526001600c5534801561001557600080fd5b50604080518082018252600c81526b22aa20902628102a37b5b2b760a11b6020918201528151808301835260018152603160f81b9082015281517f8b73c3c69bb8fe3d512ecc4cf759cc79239f7b179b0ffacaa9a75d522b39400f818301527f69ef02edbfc51d6efa47a6f3859ffffca2f61c3b3d65e8cc6275b2414209be8f818401527fc89efdaa54c0f20c7adf612882df0950f5a951637e0307cdcb4c672f298b8bc660608201524660808201523060a0808301919091528351808303909101815260c09091019092528151910120600355600580546001600160a01b03191633179055612b868061010a6000396000f3fe608060405234801561001057600080fd5b50600436106101c45760003560e01c80636a627842116100f9578063ba9a7a5611610097578063d21220a711610071578063d21220a714610618578063d505accf14610620578063dd62ed3e1461067e578063fff6cae9146106b9576101c4565b8063ba9a7a56146105d5578063bc25cf77146105dd578063c45a015514610610576101c4565b80637ecebe00116100d35780637ecebe001461051557806389afcb441461054857806395d89b4114610594578063a9059cbb1461059c576101c4565b80636a627842146104a757806370a08231146104da5780637464fc3d1461050d576101c4565b806327e235e3116101665780633644e515116101405780633644e51514610454578063485cc9551461045c5780635909c0d5146104975780635a3d54931461049f576101c4565b806327e235e3146103fb57806330adf81f1461042e578063313ce56714610436576101c4565b8063095ea7b3116101a2578063095ea7b3146103205780630dfe16811461036d57806318160ddd1461039e57806323b872dd146103b8576101c4565b8063022c0d9f146101c957806306fdde03146102645780630902f1ac146102e1575b600080fd5b610262600480360360808110156101df57600080fd5b81359160208101359173ffffffffffffffffffffffffffffffffffffffff604083013516919081019060808101606082013564010000000081111561022357600080fd5b82018360208201111561023557600080fd5b8035906020019184600183028401116401000000008311171561025757600080fd5b5090925090506106c1565b005b61026c610e61565b6040805160208082528351818301528351919283929083019185019080838360005b838110156102a657818101518382015260200161028e565b50505050905090810190601f1680156102d35780820380516001836020036101000a031916815260200191505b509250505060405180910390f35b6102e9610e9a565b604080516dffffffffffffffffffffffffffff948516815292909316602083015263ffffffff168183015290519081900360600190f35b6103596004803603604081101561033657600080fd5b5073ffffffffffffffffffffffffffffffffffffffff8135169060200135610eef565b604080519115158252519081900360200190f35b610375610f06565b6040805173ffffffffffffffffffffffffffffffffffffffff9092168252519081900360200190f35b6103a6610f22565b60408051918252519081900360200190f35b610359600480360360608110156103ce57600080fd5b5073ffffffffffffffffffffffffffffffffffffffff813581169160208101359091169060400135610f28565b6103a66004803603602081101561041157600080fd5b503573ffffffffffffffffffffffffffffffffffffffff16611001565b6103a6611013565b61043e611037565b6040805160ff9092168252519081900360200190f35b6103a661103c565b6102626004803603604081101561047257600080fd5b5073ffffffffffffffffffffffffffffffffffffffff81358116916020013516611042565b6103a661111b565b6103a6611121565b6103a6600480360360208110156104bd57600080fd5b503573ffffffffffffffffffffffffffffffffffffffff16611127565b6103a6600480360360208110156104f057600080fd5b503573ffffffffffffffffffffffffffffffffffffffff166114bd565b6103a66114e9565b6103a66004803603602081101561052b57600080fd5b503573ffffffffffffffffffffffffffffffffffffffff166114ef565b61057b6004803603602081101561055e57600080fd5b503573ffffffffffffffffffffffffffffffffffffffff16611501565b6040805192835260208301919091528051918290030190f35b61026c61198a565b610359600480360360408110156105b257600080fd5b5073ffffffffffffffffffffffffffffffffffffffff81351690602001356119c3565b6103a66119d0565b610262600480360360208110156105f357600080fd5b503573ffffffffffffffffffffffffffffffffffffffff166119d6565b610375611bc3565b610375611bdf565b610262600480360360e081101561063657600080fd5b5073ffffffffffffffffffffffffffffffffffffffff813581169160208101359091169060408101359060608101359060ff6080820135169060a08101359060c00135611bfb565b6103a66004803603604081101561069457600080fd5b5073ffffffffffffffffffffffffffffffffffffffff81358116916020013516611ec7565b610262611ee4565b600c5460011461073257604080517f08c379a000000000000000000000000000000000000000000000000000000000815260206004820152600f60248201527f457461506169723a204c4f434b45440000000000000000000000000000000000604482015290519081900360640190fd5b6000600c55841515806107455750600084115b61079a576040517f08c379a0000000000000000000000000000000000000000000000000000000008152600401808060200182810382526023815260200180612b086023913960400191505060405180910390fd5b6107a2612a69565b6040518060c0016040528060006dffffffffffffffffffffffffffff16815260200160006dffffffffffffffffffffffffffff168152602001600081526020016000815260200160008152602001600081525090506107ff610e9a565b506dffffffffffffffffffffffffffff9081166020840152168082528610801561083c575080602001516dffffffffffffffffffffffffffff1685105b6108a757604080517f08c379a000000000000000000000000000000000000000000000000000000000815260206004820152601f60248201527f457461506169723a20494e53554646494349454e545f4c495155494449545900604482015290519081900360640190fd5b60065460075473ffffffffffffffffffffffffffffffffffffffff91821691908116908616821480159061090757508073ffffffffffffffffffffffffffffffffffffffff168673ffffffffffffffffffffffffffffffffffffffff1614155b61097257604080517f08c379a000000000000000000000000000000000000000000000000000000000815260206004820152601360248201527f457461506169723a20494e56414c49445f544f00000000000000000000000000604482015290519081900360640190fd5b87156109835761098382878a6120ca565b8615610994576109948187896120ca565b8315610a60578573ffffffffffffffffffffffffffffffffffffffff166310d1e85c338a8a89896040518663ffffffff1660e01b8152600401808673ffffffffffffffffffffffffffffffffffffffff168152602001858152602001848152602001806020018281038252848482818152602001925080828437600081840152601f19601f8201169050808301925050509650505050505050600060405180830381600087803b158015610a4757600080fd5b505af1158015610a5b573d6000803e3d6000fd5b505050505b604080517f70a08231000000000000000000000000000000000000000000000000000000008152306004820152905173ffffffffffffffffffffffffffffffffffffffff8416916370a08231916024808301926020929190829003018186803b158015610acc57600080fd5b505afa158015610ae0573d6000803e3d6000fd5b505050506040513d6020811015610af657600080fd5b505160408085019190915280517f70a08231000000000000000000000000000000000000000000000000000000008152306004820152905173ffffffffffffffffffffffffffffffffffffffff8316916370a08231916024808301926020929190829003018186803b158015610b6b57600080fd5b505afa158015610b7f573d6000803e3d6000fd5b505050506040513d6020811015610b9557600080fd5b505160608401525050805160408201516dffffffffffffffffffffffffffff90911687900310610bc6576000610be4565b8581600001516dffffffffffffffffffffffffffff16038160400151035b8160800181815250508481602001516dffffffffffffffffffffffffffff1603816060015111610c15576000610c33565b8481602001516dffffffffffffffffffffffffffff16038160600151035b60a08201526080810151151580610c4e575060008160a00151115b610ca3576040517f08c379a0000000000000000000000000000000000000000000000000000000008152600401808060200182810382526022815260200180612ae66022913960400191505060405180910390fd5b6000610cd7610cc06019846080015161216c90919063ffffffff16565b6040840151610cd19061271061216c565b906121f2565b90506000610d07610cf660198560a0015161216c90919063ffffffff16565b6060850151610cd19061271061216c565b9050610d526305f5e100610d4c85602001516dffffffffffffffffffffffffffff1686600001516dffffffffffffffffffffffffffff1661216c90919063ffffffff16565b9061216c565b610d5c838361216c565b1015610dc957604080517f08c379a000000000000000000000000000000000000000000000000000000000815260206004820152600a60248201527f457461506169723a204b00000000000000000000000000000000000000000000604482015290519081900360640190fd5b5050610de78160400151826060015183600001518460200151612264565b60808082015160a0830151604080519283526020830191909152818101899052606082018890525173ffffffffffffffffffffffffffffffffffffffff87169233927fd78ad95fa46c994b6551d0da85fc275fe613ce37657fb8d5e3d130840159d822929081900390910190a350506001600c5550505050565b6040518060400160405280600c81526020017f455441204c5020546f6b656e000000000000000000000000000000000000000081525081565b6008546dffffffffffffffffffffffffffff808216926e0100000000000000000000000000008304909116917c0100000000000000000000000000000000000000000000000000000000900463ffffffff1690565b6000610efc33848461251a565b5060015b92915050565b60065473ffffffffffffffffffffffffffffffffffffffff1681565b60005481565b73ffffffffffffffffffffffffffffffffffffffff831660009081526002602090815260408083203384529091528120547fffffffffffffffffffffffffffffffffffffffffffffffffffffffffffffffff14610fec5773ffffffffffffffffffffffffffffffffffffffff84166000908152600260209081526040808320338452909152902054610fba90836121f2565b73ffffffffffffffffffffffffffffffffffffffff851660009081526002602090815260408083203384529091529020555b610ff7848484612589565b5060019392505050565b60016020526000908152604090205481565b7f6e71edae12b1b97f4d1f60370fef10105fa2faae0126114a169c64845d6126c981565b601281565b60035481565b60055473ffffffffffffffffffffffffffffffffffffffff1633146110c857604080517f08c379a000000000000000000000000000000000000000000000000000000000815260206004820152601260248201527f457461506169723a20464f5242494444454e0000000000000000000000000000604482015290519081900360640190fd5b6006805473ffffffffffffffffffffffffffffffffffffffff9384167fffffffffffffffffffffffff00000000000000000000000000000000000000009182161790915560078054929093169116179055565b60095481565b600a5481565b6000600c5460011461119a57604080517f08c379a000000000000000000000000000000000000000000000000000000000815260206004820152600f60248201527f457461506169723a204c4f434b45440000000000000000000000000000000000604482015290519081900360640190fd5b6000600c819055806111aa610e9a565b50600654604080517f70a08231000000000000000000000000000000000000000000000000000000008152306004820152905193955091935060009273ffffffffffffffffffffffffffffffffffffffff909116916370a08231916024808301926020929190829003018186803b15801561122457600080fd5b505afa158015611238573d6000803e3d6000fd5b505050506040513d602081101561124e57600080fd5b5051600754604080517f70a08231000000000000000000000000000000000000000000000000000000008152306004820152905192935060009273ffffffffffffffffffffffffffffffffffffffff909216916370a0823191602480820192602092909190829003018186803b1580156112c757600080fd5b505afa1580156112db573d6000803e3d6000fd5b505050506040513d60208110156112f157600080fd5b505190506000611311836dffffffffffffffffffffffffffff87166121f2565b9050600061132f836dffffffffffffffffffffffffffff87166121f2565b9050600061133d878761265e565b60005490915080611374576113606103e8610cd161135b878761216c565b6127cc565b985061136f60006103e861281d565b6113c5565b6113c26dffffffffffffffffffffffffffff8916611392868461216c565b8161139957fe5b046dffffffffffffffffffffffffffff89166113b5868561216c565b816113bc57fe5b046128c1565b98505b6000891161141e576040517f08c379a0000000000000000000000000000000000000000000000000000000008152600401808060200182810382526026815260200180612ac06026913960400191505060405180910390fd5b6114288a8a61281d565b61143486868a8a612264565b81156114705760085461146c906dffffffffffffffffffffffffffff808216916e01000000000000000000000000000090041661216c565b600b555b6040805185815260208101859052815133927f4c209b5fc8ad50758f13e2e1088ba56a560dff690a1c6fef26394f4c03821c4f928290030190a250506001600c5550949695505050505050565b73ffffffffffffffffffffffffffffffffffffffff81166000908152600160205260409020545b919050565b600b5481565b60046020526000908152604090205481565b600080600c5460011461157557604080517f08c379a000000000000000000000000000000000000000000000000000000000815260206004820152600f60248201527f457461506169723a204c4f434b45440000000000000000000000000000000000604482015290519081900360640190fd5b6000600c81905580611585610e9a565b50600654600754604080517f70a08231000000000000000000000000000000000000000000000000000000008152306004820152905194965092945073ffffffffffffffffffffffffffffffffffffffff9182169391169160009184916370a08231916024808301926020929190829003018186803b15801561160757600080fd5b505afa15801561161b573d6000803e3d6000fd5b505050506040513d602081101561163157600080fd5b5051604080517f70a08231000000000000000000000000000000000000000000000000000000008152306004820152905191925060009173ffffffffffffffffffffffffffffffffffffffff8516916370a08231916024808301926020929190829003018186803b1580156116a557600080fd5b505afa1580156116b9573d6000803e3d6000fd5b505050506040513d60208110156116cf57600080fd5b5051905060006116de306114bd565b905060006116ec888861265e565b600054909150806116fd848761216c565b8161170457fe5b049a5080611712848661216c565b8161171957fe5b04995060008b11801561172c575060008a115b611781576040517f08c379a0000000000000000000000000000000000000000000000000000000008152600401808060200182810382526026815260200180612b2b6026913960400191505060405180910390fd5b61178b30846128d9565b611796878d8d6120ca565b6117a1868d8c6120ca565b604080517f70a08231000000000000000000000000000000000000000000000000000000008152306004820152905173ffffffffffffffffffffffffffffffffffffffff8916916370a08231916024808301926020929190829003018186803b15801561180d57600080fd5b505afa158015611821573d6000803e3d6000fd5b505050506040513d602081101561183757600080fd5b5051604080517f70a08231000000000000000000000000000000000000000000000000000000008152306004820152905191965073ffffffffffffffffffffffffffffffffffffffff8816916370a0823191602480820192602092909190829003018186803b1580156118a957600080fd5b505afa1580156118bd573d6000803e3d6000fd5b505050506040513d60208110156118d357600080fd5b505193506118e385858b8b612264565b811561191f5760085461191b906dffffffffffffffffffffffffffff808216916e01000000000000000000000000000090041661216c565b600b555b604080518c8152602081018c9052815173ffffffffffffffffffffffffffffffffffffffff8f169233927fdccd412f0b1252819cb1fd330b93224ca42612892bb3f4f789976e6d81936496929081900390910190a35050505050505050506001600c81905550915091565b6040518060400160405280600381526020017f454c50000000000000000000000000000000000000000000000000000000000081525081565b6000610efc338484612589565b6103e881565b600c54600114611a4757604080517f08c379a000000000000000000000000000000000000000000000000000000000815260206004820152600f60248201527f457461506169723a204c4f434b45440000000000000000000000000000000000604482015290519081900360640190fd5b6000600c55600654600754600854604080517f70a08231000000000000000000000000000000000000000000000000000000008152306004820152905173ffffffffffffffffffffffffffffffffffffffff9485169490931692611b1d9285928792611b18926dffffffffffffffffffffffffffff169185916370a0823191602480820192602092909190829003018186803b158015611ae657600080fd5b505afa158015611afa573d6000803e3d6000fd5b505050506040513d6020811015611b1057600080fd5b5051906121f2565b6120ca565b611bb98184611b186008600e9054906101000a90046dffffffffffffffffffffffffffff166dffffffffffffffffffffffffffff168573ffffffffffffffffffffffffffffffffffffffff166370a08231306040518263ffffffff1660e01b8152600401808273ffffffffffffffffffffffffffffffffffffffff16815260200191505060206040518083038186803b158015611ae657600080fd5b50506001600c5550565b60055473ffffffffffffffffffffffffffffffffffffffff1681565b60075473ffffffffffffffffffffffffffffffffffffffff1681565b42841015611c6a57604080517f08c379a000000000000000000000000000000000000000000000000000000000815260206004820152600c60248201527f5461753a20455850495245440000000000000000000000000000000000000000604482015290519081900360640190fd5b60035473ffffffffffffffffffffffffffffffffffffffff80891660008181526004602090815260408083208054600180820190925582517f6e71edae12b1b97f4d1f60370fef10105fa2faae0126114a169c64845d6126c98186015280840196909652958d166060860152608085018c905260a085019590955260c08085018b90528151808603909101815260e0850182528051908301207f19010000000000000000000000000000000000000000000000000000000000006101008601526101028501969096526101228085019690965280518085039096018652610142840180825286519683019690962095839052610162840180825286905260ff89166101828501526101a284018890526101c28401879052519193926101e2808201937fffffffffffffffffffffffffffffffffffffffffffffffffffffffffffffffe081019281900390910190855afa158015611dcb573d6000803e3d6000fd5b50506040517fffffffffffffffffffffffffffffffffffffffffffffffffffffffffffffffe0015191505073ffffffffffffffffffffffffffffffffffffffff811615801590611e4657508873ffffffffffffffffffffffffffffffffffffffff168173ffffffffffffffffffffffffffffffffffffffff16145b611eb157604080517f08c379a000000000000000000000000000000000000000000000000000000000815260206004820152601660248201527f5461753a20494e56414c49445f5349474e415455524500000000000000000000604482015290519081900360640190fd5b611ebc89898961251a565b505050505050505050565b600260209081526000928352604080842090915290825290205481565b600c54600114611f5557604080517f08c379a000000000000000000000000000000000000000000000000000000000815260206004820152600f60248201527f457461506169723a204c4f434b45440000000000000000000000000000000000604482015290519081900360640190fd5b6000600c55600654604080517f70a0823100000000000000000000000000000000000000000000000000000000815230600482015290516120c39273ffffffffffffffffffffffffffffffffffffffff16916370a08231916024808301926020929190829003018186803b158015611fcc57600080fd5b505afa158015611fe0573d6000803e3d6000fd5b505050506040513d6020811015611ff657600080fd5b5051600754604080517f70a08231000000000000000000000000000000000000000000000000000000008152306004820152905173ffffffffffffffffffffffffffffffffffffffff909216916370a0823191602480820192602092909190829003018186803b15801561206957600080fd5b505afa15801561207d573d6000803e3d6000fd5b505050506040513d602081101561209357600080fd5b50516008546dffffffffffffffffffffffffffff808216916e010000000000000000000000000000900416612264565b6001600c55565b8273ffffffffffffffffffffffffffffffffffffffff1663a9059cbb83836040518363ffffffff1660e01b8152600401808373ffffffffffffffffffffffffffffffffffffffff16815260200182815260200192505050602060405180830381600087803b15801561213b57600080fd5b505af115801561214f573d6000803e3d6000fd5b505050506040513d602081101561216557600080fd5b5050505050565b60008115806121875750508082028282828161218457fe5b04145b610f0057604080517f08c379a000000000000000000000000000000000000000000000000000000000815260206004820152601460248201527f64732d6d6174682d6d756c2d6f766572666c6f77000000000000000000000000604482015290519081900360640190fd5b80820382811115610f0057604080517f08c379a000000000000000000000000000000000000000000000000000000000815260206004820152601560248201527f64732d6d6174682d7375622d756e646572666c6f770000000000000000000000604482015290519081900360640190fd5b6dffffffffffffffffffffffffffff841180159061229057506dffffffffffffffffffffffffffff8311155b6122fb57604080517f08c379a000000000000000000000000000000000000000000000000000000000815260206004820152601160248201527f457461506169723a204f564552464c4f57000000000000000000000000000000604482015290519081900360640190fd5b60085463ffffffff428116917c01000000000000000000000000000000000000000000000000000000009004811682039081161580159061234b57506dffffffffffffffffffffffffffff841615155b801561236657506dffffffffffffffffffffffffffff831615155b15612410578063ffffffff166123a38561237f86612992565b7bffffffffffffffffffffffffffffffffffffffffffffffffffffffff16906129b6565b600980547bffffffffffffffffffffffffffffffffffffffffffffffffffffffff929092169290920201905563ffffffff81166123e38461237f87612992565b600a80547bffffffffffffffffffffffffffffffffffffffffffffffffffffffff92909216929092020190555b600880547fffffffffffffffffffffffffffffffffffff0000000000000000000000000000166dffffffffffffffffffffffffffff888116919091177fffffffff0000000000000000000000000000ffffffffffffffffffffffffffff166e0100000000000000000000000000008883168102919091177bffffffffffffffffffffffffffffffffffffffffffffffffffffffff167c010000000000000000000000000000000000000000000000000000000063ffffffff871602179283905560408051848416815291909304909116602082015281517f1c411e9a96e071241c2f21f7726b17ae89e3cab4c78be50e062b03a9fffbbad1929181900390910190a1505050505050565b73ffffffffffffffffffffffffffffffffffffffff808416600081815260026020908152604080832094871680845294825291829020859055815185815291517f8c5be1e5ebec7d5bd14f71427d1e84f3dd0314c0f7b2291e5b200ac8c7c3b9259281900390910190a3505050565b73ffffffffffffffffffffffffffffffffffffffff83166000908152600160205260409020546125b990826121f2565b73ffffffffffffffffffffffffffffffffffffffff80851660009081526001602052604080822093909355908416815220546125f590826129f7565b73ffffffffffffffffffffffffffffffffffffffff80841660008181526001602090815260409182902094909455805185815290519193928716927fddf252ad1be2c89b69c2b068fc378daa952ba7f163c4a11628f55a4df523b3ef92918290030190a3505050565b600080600560009054906101000a900473ffffffffffffffffffffffffffffffffffffffff1673ffffffffffffffffffffffffffffffffffffffff1663017e7e586040518163ffffffff1660e01b815260040160206040518083038186803b1580156126c957600080fd5b505afa1580156126dd573d6000803e3d6000fd5b505050506040513d60208110156126f357600080fd5b5051600b5473ffffffffffffffffffffffffffffffffffffffff82161580159450919250906127b85780156127b357600061274461135b6dffffffffffffffffffffffffffff88811690881661216c565b90506000612751836127cc565b9050808211156127b057600061277361276a84846121f2565b6000549061216c565b9050600061278c8361278686600561216c565b906129f7565b9050600081838161279957fe5b04905080156127ac576127ac878261281d565b5050505b50505b6127c4565b80156127c4576000600b555b505092915050565b6000600382111561280f575080600160028204015b81811015612809578091506002818285816127f857fe5b04018161280157fe5b0490506127e1565b506114e4565b81156114e457506001919050565b60005461282a90826129f7565b600090815573ffffffffffffffffffffffffffffffffffffffff831681526001602052604090205461285c90826129f7565b73ffffffffffffffffffffffffffffffffffffffff831660008181526001602090815260408083209490945583518581529351929391927fddf252ad1be2c89b69c2b068fc378daa952ba7f163c4a11628f55a4df523b3ef9281900390910190a35050565b60008183106128d057816128d2565b825b9392505050565b73ffffffffffffffffffffffffffffffffffffffff821660009081526001602052604090205461290990826121f2565b73ffffffffffffffffffffffffffffffffffffffff83166000908152600160205260408120919091555461293d90826121f2565b600090815560408051838152905173ffffffffffffffffffffffffffffffffffffffff8516917fddf252ad1be2c89b69c2b068fc378daa952ba7f163c4a11628f55a4df523b3ef919081900360200190a35050565b6dffffffffffffffffffffffffffff166e0100000000000000000000000000000290565b60006dffffffffffffffffffffffffffff82167bffffffffffffffffffffffffffffffffffffffffffffffffffffffff8416816129ef57fe5b049392505050565b80820182811015610f0057604080517f08c379a000000000000000000000000000000000000000000000000000000000815260206004820152601460248201527f64732d6d6174682d6164642d6f766572666c6f77000000000000000000000000604482015290519081900360640190fd5b6040518060c0016040528060006dffffffffffffffffffffffffffff16815260200160006dffffffffffffffffffffffffffff16815260200160008152602001600081526020016000815260200160008152509056fe457461506169723a20494e53554646494349454e545f4c49515549444954595f4d494e544544457461506169723a20494e53554646494349454e545f494e5055545f414d4f554e54457461506169723a20494e53554646494349454e545f4f55545055545f414d4f554e54457461506169723a20494e53554646494349454e545f4c49515549444954595f4255524e4544a2646970667358221220f3f02589cc460023a9bf43ba70a9f6fcadd6b31b301f3a36bc17090fb427b2d164736f6c634300060c0033a2646970667358221220b86694b444a857befdb12591d9bcf09b8ade4c7b9d44a680ce1a4ac35952deb364736f6c634300060c0033",
  "linkReferences": {},
  "deployedLinkReferences": {}
}