{
    "_format": "hh-sol-artifact-1",
    "contractName": "SimpleRewarderPerSec",
    "sourceName": "contracts/farm/v2/rewarders/SimpleRewarderPerSec.sol",
    "abi": [
        {
            "inputs": [
                {
                    "internalType": "contract IBoringERC20",
                    "name": "_rewardToken",
                    "type": "address"
                },
                {
                    "internalType": "uint256",
                    "name": "_tokenPerSec",
                    "type": "uint256"
                },
                {
                    "internalType": "contract IEtaDistributorV2",
                    "name": "_distributorV2",
                    "type": "address"
                },
                {
                    "internalType": "uint256",
                    "name": "_pid",
                    "type": "uint256"
                },
                {
                    "internalType": "bool",
                    "name": "_isNative",
                    "type": "bool"
                }
            ],
            "stateMutability": "nonpayable",
            "type": "constructor"
        },
        {
            "anonymous": false,
            "inputs": [
                {
                    "indexed": true,
                    "internalType": "address",
                    "name": "user",
                    "type": "address"
                },
                {
                    "indexed": false,
                    "internalType": "uint256",
                    "name": "amount",
                    "type": "uint256"
                }
            ],
            "name": "OnReward",
            "type": "event"
        },
        {
            "anonymous": false,
            "inputs": [
                {
                    "indexed": true,
                    "internalType": "address",
                    "name": "previousOwner",
                    "type": "address"
                },
                {
                    "indexed": true,
                    "internalType": "address",
                    "name": "newOwner",
                    "type": "address"
                }
            ],
            "name": "OwnershipTransferred",
            "type": "event"
        },
        {
            "anonymous": false,
            "inputs": [
                {
                    "indexed": false,
                    "internalType": "uint256",
                    "name": "oldRate",
                    "type": "uint256"
                },
                {
                    "indexed": false,
                    "internalType": "uint256",
                    "name": "newRate",
                    "type": "uint256"
                }
            ],
            "name": "RewardRateUpdated",
            "type": "event"
        },
        {
            "inputs": [],
            "name": "balance",
            "outputs": [
                {
                    "internalType": "uint256",
                    "name": "",
                    "type": "uint256"
                }
            ],
            "stateMutability": "view",
            "type": "function"
        },
        {
            "inputs": [],
            "name": "distributorV2",
            "outputs": [
                {
                    "internalType": "contract IEtaDistributorV2",
                    "name": "",
                    "type": "address"
                }
            ],
            "stateMutability": "view",
            "type": "function"
        },
        {
            "inputs": [],
            "name": "emergencyWithdraw",
            "outputs": [],
            "stateMutability": "nonpayable",
            "type": "function"
        },
        {
            "inputs": [],
            "name": "isNative",
            "outputs": [
                {
                    "internalType": "bool",
                    "name": "",
                    "type": "bool"
                }
            ],
            "stateMutability": "view",
            "type": "function"
        },
        {
            "inputs": [
                {
                    "internalType": "address",
                    "name": "_user",
                    "type": "address"
                },
                {
                    "internalType": "uint256",
                    "name": "_lpAmount",
                    "type": "uint256"
                }
            ],
            "name": "onTauReward",
            "outputs": [],
            "stateMutability": "nonpayable",
            "type": "function"
        },
        {
            "inputs": [],
            "name": "owner",
            "outputs": [
                {
                    "internalType": "address",
                    "name": "",
                    "type": "address"
                }
            ],
            "stateMutability": "view",
            "type": "function"
        },
        {
            "inputs": [
                {
                    "internalType": "address",
                    "name": "_user",
                    "type": "address"
                }
            ],
            "name": "pendingTokens",
            "outputs": [
                {
                    "internalType": "uint256",
                    "name": "pending",
                    "type": "uint256"
                }
            ],
            "stateMutability": "view",
            "type": "function"
        },
        {
            "inputs": [],
            "name": "pid",
            "outputs": [
                {
                    "internalType": "uint256",
                    "name": "",
                    "type": "uint256"
                }
            ],
            "stateMutability": "view",
            "type": "function"
        },
        {
            "inputs": [],
            "name": "poolInfo",
            "outputs": [
                {
                    "internalType": "uint256",
                    "name": "accTokenPerShare",
                    "type": "uint256"
                },
                {
                    "internalType": "uint256",
                    "name": "lastRewardTimestamp",
                    "type": "uint256"
                }
            ],
            "stateMutability": "view",
            "type": "function"
        },
        {
            "inputs": [],
            "name": "renounceOwnership",
            "outputs": [],
            "stateMutability": "nonpayable",
            "type": "function"
        },
        {
            "inputs": [],
            "name": "rewardToken",
            "outputs": [
                {
                    "internalType": "contract IBoringERC20",
                    "name": "",
                    "type": "address"
                }
            ],
            "stateMutability": "view",
            "type": "function"
        },
        {
            "inputs": [
                {
                    "internalType": "uint256",
                    "name": "_tokenPerSec",
                    "type": "uint256"
                }
            ],
            "name": "setRewardRate",
            "outputs": [],
            "stateMutability": "nonpayable",
            "type": "function"
        },
        {
            "inputs": [],
            "name": "tokenPerSec",
            "outputs": [
                {
                    "internalType": "uint256",
                    "name": "",
                    "type": "uint256"
                }
            ],
            "stateMutability": "view",
            "type": "function"
        },
        {
            "inputs": [
                {
                    "internalType": "address",
                    "name": "newOwner",
                    "type": "address"
                }
            ],
            "name": "transferOwnership",
            "outputs": [],
            "stateMutability": "nonpayable",
            "type": "function"
        },
        {
            "inputs": [],
            "name": "updatePool",
            "outputs": [
                {
                    "components": [
                        {
                            "internalType": "uint256",
                            "name": "accTokenPerShare",
                            "type": "uint256"
                        },
                        {
                            "internalType": "uint256",
                            "name": "lastRewardTimestamp",
                            "type": "uint256"
                        }
                    ],
                    "internalType": "struct SimpleRewarderPerSec.PoolInfo",
                    "name": "pool",
                    "type": "tuple"
                }
            ],
            "stateMutability": "nonpayable",
            "type": "function"
        },
        {
            "inputs": [
                {
                    "internalType": "address",
                    "name": "",
                    "type": "address"
                }
            ],
            "name": "userInfo",
            "outputs": [
                {
                    "internalType": "uint256",
                    "name": "amount",
                    "type": "uint256"
                },
                {
                    "internalType": "uint256",
                    "name": "rewardDebt",
                    "type": "uint256"
                }
            ],
            "stateMutability": "view",
            "type": "function"
        },
        {
            "stateMutability": "payable",
            "type": "receive"
        }
    ],
    "bytecode": "0x6101006040523480156200001257600080fd5b506040516200168f3803806200168f833981016040819052620000359162000216565b62000040336200019e565b600180819055506200005d85620001ee60201b62000d881760201c565b620000ca5760405162461bcd60e51b815260206004820152603260248201527f636f6e7374727563746f723a2072657761726420746f6b656e206d7573742062604482015271194818481d985b1a590818dbdb9d1c9858dd60721b60648201526084015b60405180910390fd5b620000e083620001ee60201b62000d881760201c565b620001545760405162461bcd60e51b815260206004820152603660248201527f636f6e7374727563746f723a204574614469737472696275746f725632206d7560448201527f737420626520612076616c696420636f6e7472616374000000000000000000006064820152608401620000c1565b6001600160a01b0394851660805260a09190915260059290925590911660e052151560c0526040805180820190915260008082524260209290920182905260025560035562000282565b600080546001600160a01b038381166001600160a01b0319831681178455604051919092169283917f8be0079c531659141344cd1fd0a4f28419497f9722a3daafe3b4186f6b6457e09190a35050565b6001600160a01b03163b151590565b6001600160a01b03811681146200021357600080fd5b50565b600080600080600060a086880312156200022f57600080fd5b85516200023c81620001fd565b6020870151604088015191965094506200025681620001fd565b60608701516080880151919450925080151581146200027457600080fd5b809150509295509295909350565b60805160a05160c05160e051611378620003176000396000818161021d015281816103c9015281816108250152610bd30152600081816101d901528181610510015281816109770152610e1c01526000818161033b015281816108540152610baa01526000818161038f015281816106510152818161069701528181610a9901528181610b2a0152610e7301526113786000f3fe6080604052600436106100f75760003560e01c80639e447fc61161008a578063e3161ddd11610059578063e3161ddd146102f9578063f106845414610329578063f2fde38b1461035d578063f7c618c11461037d57600080fd5b80639e447fc61461028f578063b69ef8a8146102af578063c031a66f146102c4578063db2e21bc146102e457600080fd5b8063715018a6116100c6578063715018a6146101b257806373cfc6b2146101c75780637d0d9d5f1461020b5780638da5cb5b1461026457600080fd5b80631959a0021461010357806350fd1f3e146101515780635a2f3d09146101755780636a3f6a5f1461019057600080fd5b366100fe57005b600080fd5b34801561010f57600080fd5b5061013761011e366004611191565b6004602052600090815260409020805460019091015482565b604080519283526020830191909152015b60405180910390f35b34801561015d57600080fd5b5061016760055481565b604051908152602001610148565b34801561018157600080fd5b50600254600354610137919082565b34801561019c57600080fd5b506101b06101ab3660046111b3565b6103b1565b005b3480156101be57600080fd5b506101b061073f565b3480156101d357600080fd5b506101fb7f000000000000000000000000000000000000000000000000000000000000000081565b6040519015158152602001610148565b34801561021757600080fd5b5061023f7f000000000000000000000000000000000000000000000000000000000000000081565b60405173ffffffffffffffffffffffffffffffffffffffff9091168152602001610148565b34801561027057600080fd5b5060005473ffffffffffffffffffffffffffffffffffffffff1661023f565b34801561029b57600080fd5b506101b06102aa3660046111dd565b610753565b3480156102bb57600080fd5b506101676107a5565b3480156102d057600080fd5b506101676102df366004611191565b6107b4565b3480156102f057600080fd5b506101b061096d565b34801561030557600080fd5b5061030e610b51565b60408051825181526020928301519281019290925201610148565b34801561033557600080fd5b506101677f000000000000000000000000000000000000000000000000000000000000000081565b34801561036957600080fd5b506101b0610378366004611191565b610cd4565b34801561038957600080fd5b5061023f7f000000000000000000000000000000000000000000000000000000000000000081565b3373ffffffffffffffffffffffffffffffffffffffff7f0000000000000000000000000000000000000000000000000000000000000000161461047b576040517f08c379a000000000000000000000000000000000000000000000000000000000815260206004820152603f60248201527f6f6e6c794469737472696275746f7256323a206f6e6c7920457461446973747260448201527f696275746f7256322063616e2063616c6c20746869732066756e6374696f6e0060648201526084015b60405180910390fd5b610483610da4565b61048b610b51565b50604080518082018252600254815260035460208083019190915273ffffffffffffffffffffffffffffffffffffffff8516600090815260049091529182209091806104d5610e18565b8354909150156106be5760018301548451845464e8d4a51000916104f891611225565b6105029190611262565b61050c919061129d565b91507f00000000000000000000000000000000000000000000000000000000000000001561062f578082111561060d5760008673ffffffffffffffffffffffffffffffffffffffff16826040515b60006040518083038185875af1925050503d8060008114610597576040519150601f19603f3d011682016040523d82523d6000602084013e61059c565b606091505b5050905080610607576040517f08c379a000000000000000000000000000000000000000000000000000000000815260206004820152600f60248201527f5472616e73666572206661696c656400000000000000000000000000000000006044820152606401610472565b506106be565b60008673ffffffffffffffffffffffffffffffffffffffff168360405161055a565b8082111561067d5761067873ffffffffffffffffffffffffffffffffffffffff7f0000000000000000000000000000000000000000000000000000000000000000168783610f02565b6106be565b6106be73ffffffffffffffffffffffffffffffffffffffff7f0000000000000000000000000000000000000000000000000000000000000000168784610f02565b848355835164e8d4a51000906106d49087611225565b6106de9190611262565b600184015560405182815273ffffffffffffffffffffffffffffffffffffffff8716907fd1072bb52c3131d0c96197b73fb8a45637e30f8b6664fc142310cc9b242859b49060200160405180910390a25050505061073b60018055565b5050565b610747611072565b61075160006110f3565b565b61075b611072565b610763610b51565b5060055460408051918252602082018390527fc390a98ace15a7bb6bab611eedfdbb2685043b241a869420043cdfb23ccfee50910160405180910390a1600555565b60006107af610e18565b905090565b604080518082018252600254815260035460208083019190915273ffffffffffffffffffffffffffffffffffffffff8085166000908152600492839052848120845195517f654c9ece00000000000000000000000000000000000000000000000000000000815291959093909286927f00000000000000000000000000000000000000000000000000000000000000009091169163654c9ece9161087e917f0000000000000000000000000000000000000000000000000000000000000000910190815260200190565b60206040518083038186803b15801561089657600080fd5b505afa1580156108aa573d6000803e3d6000fd5b505050506040513d601f19601f820116820180604052508101906108ce91906112b4565b90508360200151421180156108e257508015155b156109365760008460200151426108f9919061129d565b905060006005548261090b9190611225565b90508261091d64e8d4a5100083611225565b6109279190611262565b61093190856112cd565b935050505b6001830154835464e8d4a510009061094f908590611225565b6109599190611262565b610963919061129d565b9695505050505050565b610975611072565b7f000000000000000000000000000000000000000000000000000000000000000015610a5057604051600090339047908381818185875af1925050503d80600081146109dd576040519150601f19603f3d011682016040523d82523d6000602084013e6109e2565b606091505b5050905080610a4d576040517f08c379a000000000000000000000000000000000000000000000000000000000815260206004820152600f60248201527f5472616e73666572206661696c656400000000000000000000000000000000006044820152606401610472565b50565b6040517f70a0823100000000000000000000000000000000000000000000000000000000815230600482015261075190339073ffffffffffffffffffffffffffffffffffffffff7f000000000000000000000000000000000000000000000000000000000000000016906370a082319060240160206040518083038186803b158015610adb57600080fd5b505afa158015610aef573d6000803e3d6000fd5b505050506040513d601f19601f82011682018060405250810190610b1391906112b4565b73ffffffffffffffffffffffffffffffffffffffff7f0000000000000000000000000000000000000000000000000000000000000000169190610f02565b604080518082018252600080825260209182015281518083019092526002548252600354908201819052421115610cd1576040517f654c9ece0000000000000000000000000000000000000000000000000000000081527f000000000000000000000000000000000000000000000000000000000000000060048201526000907f000000000000000000000000000000000000000000000000000000000000000073ffffffffffffffffffffffffffffffffffffffff169063654c9ece9060240160206040518083038186803b158015610c2a57600080fd5b505afa158015610c3e573d6000803e3d6000fd5b505050506040513d601f19601f82011682018060405250810190610c6291906112b4565b90508015610cbf576000826020015142610c7c919061129d565b9050600060055482610c8e9190611225565b905082610ca064e8d4a5100083611225565b610caa9190611262565b84518590610cb99083906112cd565b90525050505b50426020820181905281516002556003555b90565b610cdc611072565b73ffffffffffffffffffffffffffffffffffffffff8116610d7f576040517f08c379a000000000000000000000000000000000000000000000000000000000815260206004820152602660248201527f4f776e61626c653a206e6577206f776e657220697320746865207a65726f206160448201527f64647265737300000000000000000000000000000000000000000000000000006064820152608401610472565b610a4d816110f3565b73ffffffffffffffffffffffffffffffffffffffff163b151590565b60026001541415610e11576040517f08c379a000000000000000000000000000000000000000000000000000000000815260206004820152601f60248201527f5265656e7472616e637947756172643a207265656e7472616e742063616c6c006044820152606401610472565b6002600155565b60007f000000000000000000000000000000000000000000000000000000000000000015610e4557504790565b6040517f70a082310000000000000000000000000000000000000000000000000000000081523060048201527f000000000000000000000000000000000000000000000000000000000000000073ffffffffffffffffffffffffffffffffffffffff16906370a082319060240160206040518083038186803b158015610eca57600080fd5b505afa158015610ede573d6000803e3d6000fd5b505050506040513d601f19601f820116820180604052508101906107af91906112b4565b6040805173ffffffffffffffffffffffffffffffffffffffff8481166024830152604480830185905283518084039091018152606490920183526020820180517bffffffffffffffffffffffffffffffffffffffffffffffffffffffff167fa9059cbb000000000000000000000000000000000000000000000000000000001790529151600092839290871691610f9991906112e5565b6000604051808303816000865af19150503d8060008114610fd6576040519150601f19603f3d011682016040523d82523d6000602084013e610fdb565b606091505b50915091508180156110055750805115806110055750808060200190518101906110059190611320565b61106b576040517f08c379a000000000000000000000000000000000000000000000000000000000815260206004820152601c60248201527f426f72696e6745524332303a205472616e73666572206661696c6564000000006044820152606401610472565b5050505050565b60005473ffffffffffffffffffffffffffffffffffffffff163314610751576040517f08c379a000000000000000000000000000000000000000000000000000000000815260206004820181905260248201527f4f776e61626c653a2063616c6c6572206973206e6f7420746865206f776e65726044820152606401610472565b6000805473ffffffffffffffffffffffffffffffffffffffff8381167fffffffffffffffffffffffff0000000000000000000000000000000000000000831681178455604051919092169283917f8be0079c531659141344cd1fd0a4f28419497f9722a3daafe3b4186f6b6457e09190a35050565b803573ffffffffffffffffffffffffffffffffffffffff8116811461118c57600080fd5b919050565b6000602082840312156111a357600080fd5b6111ac82611168565b9392505050565b600080604083850312156111c657600080fd5b6111cf83611168565b946020939093013593505050565b6000602082840312156111ef57600080fd5b5035919050565b7f4e487b7100000000000000000000000000000000000000000000000000000000600052601160045260246000fd5b6000817fffffffffffffffffffffffffffffffffffffffffffffffffffffffffffffffff048311821515161561125d5761125d6111f6565b500290565b600082611298577f4e487b7100000000000000000000000000000000000000000000000000000000600052601260045260246000fd5b500490565b6000828210156112af576112af6111f6565b500390565b6000602082840312156112c657600080fd5b5051919050565b600082198211156112e0576112e06111f6565b500190565b6000825160005b8181101561130657602081860181015185830152016112ec565b81811115611315576000828501525b509190910192915050565b60006020828403121561133257600080fd5b815180151581146111ac57600080fdfea2646970667358221220e55de90bd71b48829dcdc8a3b81caa98aee76197bf52cc2c3507763c4a14811b64736f6c63430008090033",
    "linkReferences": {},
    "deployedLinkReferences": {}
}