{
    "_format": "hh-sol-artifact-1",
    "contractName": "ComplexRewarderPerSec",
    "sourceName": "contracts/farm/v2/rewarders/ComplexRewarderPerSec.sol",
    "abi": [
        {
            "inputs": [
                {
                    "internalType": "contract IBoringERC20",
                    "name": "_rewardToken",
                    "type": "address"
                },
                {
                    "internalType": "uint256",
                    "name": "_tokenPerSec",
                    "type": "uint256"
                },
                {
                    "internalType": "contract IEtaDistributorV2",
                    "name": "_distributorV2",
                    "type": "address"
                },
                {
                    "internalType": "bool",
                    "name": "_isNative",
                    "type": "bool"
                }
            ],
            "stateMutability": "nonpayable",
            "type": "constructor"
        },
        {
            "anonymous": false,
            "inputs": [
                {
                    "indexed": true,
                    "internalType": "uint256",
                    "name": "pid",
                    "type": "uint256"
                },
                {
                    "indexed": false,
                    "internalType": "uint256",
                    "name": "allocPoint",
                    "type": "uint256"
                }
            ],
            "name": "AddPool",
            "type": "event"
        },
        {
            "anonymous": false,
            "inputs": [
                {
                    "indexed": true,
                    "internalType": "address",
                    "name": "user",
                    "type": "address"
                },
                {
                    "indexed": false,
                    "internalType": "uint256",
                    "name": "amount",
                    "type": "uint256"
                }
            ],
            "name": "OnReward",
            "type": "event"
        },
        {
            "anonymous": false,
            "inputs": [
                {
                    "indexed": true,
                    "internalType": "address",
                    "name": "previousOwner",
                    "type": "address"
                },
                {
                    "indexed": true,
                    "internalType": "address",
                    "name": "newOwner",
                    "type": "address"
                }
            ],
            "name": "OwnershipTransferred",
            "type": "event"
        },
        {
            "anonymous": false,
            "inputs": [
                {
                    "indexed": false,
                    "internalType": "uint256",
                    "name": "oldRate",
                    "type": "uint256"
                },
                {
                    "indexed": false,
                    "internalType": "uint256",
                    "name": "newRate",
                    "type": "uint256"
                }
            ],
            "name": "RewardRateUpdated",
            "type": "event"
        },
        {
            "anonymous": false,
            "inputs": [
                {
                    "indexed": true,
                    "internalType": "uint256",
                    "name": "pid",
                    "type": "uint256"
                },
                {
                    "indexed": false,
                    "internalType": "uint256",
                    "name": "allocPoint",
                    "type": "uint256"
                }
            ],
            "name": "SetPool",
            "type": "event"
        },
        {
            "anonymous": false,
            "inputs": [
                {
                    "indexed": true,
                    "internalType": "uint256",
                    "name": "pid",
                    "type": "uint256"
                },
                {
                    "indexed": false,
                    "internalType": "uint256",
                    "name": "lastRewardTimestamp",
                    "type": "uint256"
                },
                {
                    "indexed": false,
                    "internalType": "uint256",
                    "name": "lpSupply",
                    "type": "uint256"
                },
                {
                    "indexed": false,
                    "internalType": "uint256",
                    "name": "accTokenPerShare",
                    "type": "uint256"
                }
            ],
            "name": "UpdatePool",
            "type": "event"
        },
        {
            "inputs": [
                {
                    "internalType": "uint256",
                    "name": "_pid",
                    "type": "uint256"
                },
                {
                    "internalType": "uint256",
                    "name": "_allocPoint",
                    "type": "uint256"
                }
            ],
            "name": "add",
            "outputs": [],
            "stateMutability": "nonpayable",
            "type": "function"
        },
        {
            "inputs": [],
            "name": "balance",
            "outputs": [
                {
                    "internalType": "uint256",
                    "name": "",
                    "type": "uint256"
                }
            ],
            "stateMutability": "view",
            "type": "function"
        },
        {
            "inputs": [],
            "name": "distributorV2",
            "outputs": [
                {
                    "internalType": "contract IEtaDistributorV2",
                    "name": "",
                    "type": "address"
                }
            ],
            "stateMutability": "view",
            "type": "function"
        },
        {
            "inputs": [],
            "name": "emergencyWithdraw",
            "outputs": [],
            "stateMutability": "nonpayable",
            "type": "function"
        },
        {
            "inputs": [],
            "name": "isNative",
            "outputs": [
                {
                    "internalType": "bool",
                    "name": "",
                    "type": "bool"
                }
            ],
            "stateMutability": "view",
            "type": "function"
        },
        {
            "inputs": [],
            "name": "massUpdatePools",
            "outputs": [],
            "stateMutability": "nonpayable",
            "type": "function"
        },
        {
            "inputs": [
                {
                    "internalType": "uint256",
                    "name": "_pid",
                    "type": "uint256"
                },
                {
                    "internalType": "address",
                    "name": "_user",
                    "type": "address"
                },
                {
                    "internalType": "uint256",
                    "name": "_lpAmount",
                    "type": "uint256"
                }
            ],
            "name": "onTauReward",
            "outputs": [],
            "stateMutability": "nonpayable",
            "type": "function"
        },
        {
            "inputs": [],
            "name": "owner",
            "outputs": [
                {
                    "internalType": "address",
                    "name": "",
                    "type": "address"
                }
            ],
            "stateMutability": "view",
            "type": "function"
        },
        {
            "inputs": [
                {
                    "internalType": "uint256",
                    "name": "_pid",
                    "type": "uint256"
                },
                {
                    "internalType": "address",
                    "name": "_user",
                    "type": "address"
                }
            ],
            "name": "pendingTokens",
            "outputs": [
                {
                    "internalType": "uint256",
                    "name": "pending",
                    "type": "uint256"
                }
            ],
            "stateMutability": "view",
            "type": "function"
        },
        {
            "inputs": [
                {
                    "internalType": "uint256",
                    "name": "",
                    "type": "uint256"
                }
            ],
            "name": "poolIds",
            "outputs": [
                {
                    "internalType": "uint256",
                    "name": "",
                    "type": "uint256"
                }
            ],
            "stateMutability": "view",
            "type": "function"
        },
        {
            "inputs": [
                {
                    "internalType": "uint256",
                    "name": "",
                    "type": "uint256"
                }
            ],
            "name": "poolInfo",
            "outputs": [
                {
                    "internalType": "uint256",
                    "name": "accTokenPerShare",
                    "type": "uint256"
                },
                {
                    "internalType": "uint256",
                    "name": "lastRewardTimestamp",
                    "type": "uint256"
                },
                {
                    "internalType": "uint256",
                    "name": "allocPoint",
                    "type": "uint256"
                }
            ],
            "stateMutability": "view",
            "type": "function"
        },
        {
            "inputs": [
                {
                    "internalType": "uint256",
                    "name": "_pid",
                    "type": "uint256"
                }
            ],
            "name": "poolRewardsPerSec",
            "outputs": [
                {
                    "internalType": "uint256",
                    "name": "",
                    "type": "uint256"
                }
            ],
            "stateMutability": "view",
            "type": "function"
        },
        {
            "inputs": [],
            "name": "renounceOwnership",
            "outputs": [],
            "stateMutability": "nonpayable",
            "type": "function"
        },
        {
            "inputs": [],
            "name": "rewardToken",
            "outputs": [
                {
                    "internalType": "contract IBoringERC20",
                    "name": "",
                    "type": "address"
                }
            ],
            "stateMutability": "view",
            "type": "function"
        },
        {
            "inputs": [
                {
                    "internalType": "uint256",
                    "name": "_pid",
                    "type": "uint256"
                },
                {
                    "internalType": "uint256",
                    "name": "_allocPoint",
                    "type": "uint256"
                }
            ],
            "name": "set",
            "outputs": [],
            "stateMutability": "nonpayable",
            "type": "function"
        },
        {
            "inputs": [
                {
                    "internalType": "uint256",
                    "name": "_tokenPerSec",
                    "type": "uint256"
                }
            ],
            "name": "setRewardRate",
            "outputs": [],
            "stateMutability": "nonpayable",
            "type": "function"
        },
        {
            "inputs": [],
            "name": "tokenPerSec",
            "outputs": [
                {
                    "internalType": "uint256",
                    "name": "",
                    "type": "uint256"
                }
            ],
            "stateMutability": "view",
            "type": "function"
        },
        {
            "inputs": [],
            "name": "totalAllocPoint",
            "outputs": [
                {
                    "internalType": "uint256",
                    "name": "",
                    "type": "uint256"
                }
            ],
            "stateMutability": "view",
            "type": "function"
        },
        {
            "inputs": [
                {
                    "internalType": "address",
                    "name": "newOwner",
                    "type": "address"
                }
            ],
            "name": "transferOwnership",
            "outputs": [],
            "stateMutability": "nonpayable",
            "type": "function"
        },
        {
            "inputs": [
                {
                    "internalType": "uint256",
                    "name": "pid",
                    "type": "uint256"
                }
            ],
            "name": "updatePool",
            "outputs": [
                {
                    "components": [
                        {
                            "internalType": "uint256",
                            "name": "accTokenPerShare",
                            "type": "uint256"
                        },
                        {
                            "internalType": "uint256",
                            "name": "lastRewardTimestamp",
                            "type": "uint256"
                        },
                        {
                            "internalType": "uint256",
                            "name": "allocPoint",
                            "type": "uint256"
                        }
                    ],
                    "internalType": "struct ComplexRewarderPerSec.PoolInfo",
                    "name": "pool",
                    "type": "tuple"
                }
            ],
            "stateMutability": "nonpayable",
            "type": "function"
        },
        {
            "inputs": [
                {
                    "internalType": "uint256",
                    "name": "",
                    "type": "uint256"
                },
                {
                    "internalType": "address",
                    "name": "",
                    "type": "address"
                }
            ],
            "name": "userInfo",
            "outputs": [
                {
                    "internalType": "uint256",
                    "name": "amount",
                    "type": "uint256"
                },
                {
                    "internalType": "uint256",
                    "name": "rewardDebt",
                    "type": "uint256"
                }
            ],
            "stateMutability": "view",
            "type": "function"
        },
        {
            "stateMutability": "payable",
            "type": "receive"
        }
    ],
    "bytecode": "0x60e060405260006005553480156200001657600080fd5b5060405162001b3738038062001b378339810160408190526200003991620001f5565b62000044336200017d565b600180819055506200006184620001cd60201b620011c01760201c565b620000ce5760405162461bcd60e51b815260206004820152603260248201527f636f6e7374727563746f723a2072657761726420746f6b656e206d7573742062604482015271194818481d985b1a590818dbdb9d1c9858dd60721b60648201526084015b60405180910390fd5b620000e482620001cd60201b620011c01760201c565b620001585760405162461bcd60e51b815260206004820152603660248201527f636f6e7374727563746f723a204574614469737472696275746f725632206d7560448201527f737420626520612076616c696420636f6e7472616374000000000000000000006064820152608401620000c5565b6001600160a01b0393841660805260069290925590911660a052151560c05262000255565b600080546001600160a01b038381166001600160a01b0319831681178455604051919092169283917f8be0079c531659141344cd1fd0a4f28419497f9722a3daafe3b4186f6b6457e09190a35050565b6001600160a01b03163b151590565b6001600160a01b0381168114620001f257600080fd5b50565b600080600080608085870312156200020c57600080fd5b84516200021981620001dc565b6020860151604087015191955093506200023381620001dc565b606086015190925080151581146200024a57600080fd5b939692955090935050565b60805160a05160c051611865620002d2600039600081816102ef015281816109f301528181610dcf01526112d60152600081816103530152818161064c01528181610c9901526110880152600081816104b501528181610b1501528181610ba601528181610f1001528181610f56015261132d01526118656000f3fe60806040526004361061016e5760003560e01c8063771602f7116100cb578063b69ef8a81161007f578063f46ad5a211610059578063f46ad5a214610483578063f7c618c1146104a3578063ffcd4263146104d757600080fd5b8063b69ef8a814610439578063db2e21bc1461044e578063f2fde38b1461046357600080fd5b80638da5cb5b116100b05780638da5cb5b1461039a57806393f1a40b146103c55780639e447fc61461041957600080fd5b8063771602f7146103215780637d0d9d5f1461034157600080fd5b806351eb05a61161012257806369883b4e1161010757806369883b4e146102a8578063715018a6146102c857806373cfc6b2146102dd57600080fd5b806351eb05a614610251578063630b5ba11461029357600080fd5b80631ab06ee5116101535780631ab06ee5146101f9578063465e81ec1461021b57806350fd1f3e1461023b57600080fd5b80631526fe271461017a57806317caf6f1146101d557600080fd5b3661017557005b600080fd5b34801561018657600080fd5b506101b56101953660046115a0565b600260208190526000918252604090912080546001820154919092015483565b604080519384526020840192909252908201526060015b60405180910390f35b3480156101e157600080fd5b506101eb60055481565b6040519081526020016101cc565b34801561020557600080fd5b506102196102143660046115b9565b6104f7565b005b34801561022757600080fd5b506101eb6102363660046115a0565b610581565b34801561024757600080fd5b506101eb60065481565b34801561025d57600080fd5b5061027161026c3660046115a0565b6105ba565b60408051825181526020808401519082015291810151908201526060016101cc565b34801561029f57600080fd5b506102196107cb565b3480156102b457600080fd5b506101eb6102c33660046115a0565b610814565b3480156102d457600080fd5b50610219610835565b3480156102e957600080fd5b506103117f000000000000000000000000000000000000000000000000000000000000000081565b60405190151581526020016101cc565b34801561032d57600080fd5b5061021961033c3660046115b9565b610849565b34801561034d57600080fd5b506103757f000000000000000000000000000000000000000000000000000000000000000081565b60405173ffffffffffffffffffffffffffffffffffffffff90911681526020016101cc565b3480156103a657600080fd5b5060005473ffffffffffffffffffffffffffffffffffffffff16610375565b3480156103d157600080fd5b506104046103e03660046115ff565b60046020908152600092835260408084209091529082529020805460019091015482565b604080519283526020830191909152016101cc565b34801561042557600080fd5b506102196104343660046115a0565b610989565b34801561044557600080fd5b506101eb6109da565b34801561045a57600080fd5b506102196109e9565b34801561046f57600080fd5b5061021961047e36600461162b565b610bcd565b34801561048f57600080fd5b5061021961049e366004611646565b610c81565b3480156104af57600080fd5b506103757f000000000000000000000000000000000000000000000000000000000000000081565b3480156104e357600080fd5b506101eb6104f23660046115ff565b610fff565b6104ff6111dc565b600082815260026020819052604090912001546005548291610520916116aa565b61052a91906116c1565b600555600082815260026020819052604091829020018290555182907fc0cfd54d2de2b55f1e6e108d3ec53ff0a1abe6055401d32c61e9433b747ef9f8906105759084815260200190565b60405180910390a25050565b6000818152600260208190526040822060055460065492820154919290916105a991906116d9565b6105b39190611716565b9392505050565b6105de60405180606001604052806000815260200160008152602001600081525090565b50600081815260026020818152604092839020835160608101855281548152600182015492810183905292015492820192909252904211156107c6576040517f654c9ece000000000000000000000000000000000000000000000000000000008152600481018390526000907f000000000000000000000000000000000000000000000000000000000000000073ffffffffffffffffffffffffffffffffffffffff169063654c9ece9060240160206040518083038186803b1580156106a357600080fd5b505afa1580156106b7573d6000803e3d6000fd5b505050506040513d601f19601f820116820180604052508101906106db9190611751565b905080156107545760008260200151426106f591906116aa565b9050600060055484604001516006548461070f91906116d9565b61071991906116d9565b6107239190611716565b90508261073564e8d4a51000836116d9565b61073f9190611716565b8451859061074e9083906116c1565b90525050505b426020838101918252600085815260028083526040918290208651808255945160018201819055838801519190920155815190815291820184905281019190915283907f3be3541fc42237d611b30329040bfa4569541d156560acdbbae57640d20b8f469060600160405180910390a2505b919050565b60035460005b81811015610810576107ff600382815481106107ef576107ef61176a565b90600052602060002001546105ba565b5061080981611799565b90506107d1565b5050565b6003818154811061082457600080fd5b600091825260209091200154905081565b61083d6111dc565b610847600061125d565b565b6108516111dc565b600082815260026020526040902060010154156108cf576040517f08c379a000000000000000000000000000000000000000000000000000000000815260206004820152601360248201527f706f6f6c20616c7265616479206578697374730000000000000000000000000060448201526064015b60405180910390fd5b80600560008282546108e191906116c1565b9091555050604080516060810182526000808252426020808401918252838501868152878452600291829052858420945185559151600180860191909155915193019290925560038054928301815590527fc2575a0e9e593c00f959f8c92f12db2869c3395a3b0502d05e2516446f71f85b018390555182907fa6b36ea399c1eae2ba98a011138f78722b48f46ad93349269348ccc6e8f1cced906105759084815260200190565b6109916111dc565b6109996107cb565b60065460408051918252602082018390527fc390a98ace15a7bb6bab611eedfdbb2685043b241a869420043cdfb23ccfee50910160405180910390a1600655565b60006109e46112d2565b905090565b6109f16111dc565b7f000000000000000000000000000000000000000000000000000000000000000015610acc57604051600090339047908381818185875af1925050503d8060008114610a59576040519150601f19603f3d011682016040523d82523d6000602084013e610a5e565b606091505b5050905080610ac9576040517f08c379a000000000000000000000000000000000000000000000000000000000815260206004820152600f60248201527f5472616e73666572206661696c6564000000000000000000000000000000000060448201526064016108c6565b50565b6040517f70a0823100000000000000000000000000000000000000000000000000000000815230600482015261084790339073ffffffffffffffffffffffffffffffffffffffff7f000000000000000000000000000000000000000000000000000000000000000016906370a082319060240160206040518083038186803b158015610b5757600080fd5b505afa158015610b6b573d6000803e3d6000fd5b505050506040513d601f19601f82011682018060405250810190610b8f9190611751565b73ffffffffffffffffffffffffffffffffffffffff7f00000000000000000000000000000000000000000000000000000000000000001691906113bc565b610bd56111dc565b73ffffffffffffffffffffffffffffffffffffffff8116610c78576040517f08c379a000000000000000000000000000000000000000000000000000000000815260206004820152602660248201527f4f776e61626c653a206e6577206f776e657220697320746865207a65726f206160448201527f646472657373000000000000000000000000000000000000000000000000000060648201526084016108c6565b610ac98161125d565b3373ffffffffffffffffffffffffffffffffffffffff7f00000000000000000000000000000000000000000000000000000000000000001614610d46576040517f08c379a000000000000000000000000000000000000000000000000000000000815260206004820152603f60248201527f6f6e6c794469737472696275746f7256323a206f6e6c7920457461446973747260448201527f696275746f7256322063616e2063616c6c20746869732066756e6374696f6e0060648201526084016108c6565b610d4e61152c565b6000610d59846105ba565b600085815260046020908152604080832073ffffffffffffffffffffffffffffffffffffffff88168452909152812091925080610d946112d2565b835490915015610f7d5760018301548451845464e8d4a5100091610db7916116d9565b610dc19190611716565b610dcb91906116aa565b91507f000000000000000000000000000000000000000000000000000000000000000015610eee5780821115610ecc5760008673ffffffffffffffffffffffffffffffffffffffff16826040515b60006040518083038185875af1925050503d8060008114610e56576040519150601f19603f3d011682016040523d82523d6000602084013e610e5b565b606091505b5050905080610ec6576040517f08c379a000000000000000000000000000000000000000000000000000000000815260206004820152600f60248201527f5472616e73666572206661696c6564000000000000000000000000000000000060448201526064016108c6565b50610f7d565b60008673ffffffffffffffffffffffffffffffffffffffff1683604051610e19565b80821115610f3c57610f3773ffffffffffffffffffffffffffffffffffffffff7f00000000000000000000000000000000000000000000000000000000000000001687836113bc565b610f7d565b610f7d73ffffffffffffffffffffffffffffffffffffffff7f00000000000000000000000000000000000000000000000000000000000000001687846113bc565b848355835164e8d4a5100090610f9390876116d9565b610f9d9190611716565b600184015560405182815273ffffffffffffffffffffffffffffffffffffffff8716907fd1072bb52c3131d0c96197b73fb8a45637e30f8b6664fc142310cc9b242859b49060200160405180910390a250505050610ffa60018055565b505050565b600082815260026020818152604080842081516060810183528154815260018201548185015293015483820152858452600480835281852073ffffffffffffffffffffffffffffffffffffffff87811687529352818520845192517f654c9ece0000000000000000000000000000000000000000000000000000000081529182018890529285917f00000000000000000000000000000000000000000000000000000000000000009091169063654c9ece9060240160206040518083038186803b1580156110cc57600080fd5b505afa1580156110e0573d6000803e3d6000fd5b505050506040513d601f19601f820116820180604052508101906111049190611751565b905083602001514211801561111857508015155b1561118857600084602001514261112f91906116aa565b9050600060055486604001516006548461114991906116d9565b61115391906116d9565b61115d9190611716565b90508261116f64e8d4a51000836116d9565b6111799190611716565b61118390856116c1565b935050505b6001830154835464e8d4a51000906111a19085906116d9565b6111ab9190611716565b6111b591906116aa565b979650505050505050565b73ffffffffffffffffffffffffffffffffffffffff163b151590565b60005473ffffffffffffffffffffffffffffffffffffffff163314610847576040517f08c379a000000000000000000000000000000000000000000000000000000000815260206004820181905260248201527f4f776e61626c653a2063616c6c6572206973206e6f7420746865206f776e657260448201526064016108c6565b6000805473ffffffffffffffffffffffffffffffffffffffff8381167fffffffffffffffffffffffff0000000000000000000000000000000000000000831681178455604051919092169283917f8be0079c531659141344cd1fd0a4f28419497f9722a3daafe3b4186f6b6457e09190a35050565b60007f0000000000000000000000000000000000000000000000000000000000000000156112ff57504790565b6040517f70a082310000000000000000000000000000000000000000000000000000000081523060048201527f000000000000000000000000000000000000000000000000000000000000000073ffffffffffffffffffffffffffffffffffffffff16906370a082319060240160206040518083038186803b15801561138457600080fd5b505afa158015611398573d6000803e3d6000fd5b505050506040513d601f19601f820116820180604052508101906109e49190611751565b6040805173ffffffffffffffffffffffffffffffffffffffff8481166024830152604480830185905283518084039091018152606490920183526020820180517bffffffffffffffffffffffffffffffffffffffffffffffffffffffff167fa9059cbb00000000000000000000000000000000000000000000000000000000179052915160009283929087169161145391906117d2565b6000604051808303816000865af19150503d8060008114611490576040519150601f19603f3d011682016040523d82523d6000602084013e611495565b606091505b50915091508180156114bf5750805115806114bf5750808060200190518101906114bf919061180d565b611525576040517f08c379a000000000000000000000000000000000000000000000000000000000815260206004820152601c60248201527f426f72696e6745524332303a205472616e73666572206661696c65640000000060448201526064016108c6565b5050505050565b60026001541415611599576040517f08c379a000000000000000000000000000000000000000000000000000000000815260206004820152601f60248201527f5265656e7472616e637947756172643a207265656e7472616e742063616c6c0060448201526064016108c6565b6002600155565b6000602082840312156115b257600080fd5b5035919050565b600080604083850312156115cc57600080fd5b50508035926020909101359150565b803573ffffffffffffffffffffffffffffffffffffffff811681146107c657600080fd5b6000806040838503121561161257600080fd5b82359150611622602084016115db565b90509250929050565b60006020828403121561163d57600080fd5b6105b3826115db565b60008060006060848603121561165b57600080fd5b8335925061166b602085016115db565b9150604084013590509250925092565b7f4e487b7100000000000000000000000000000000000000000000000000000000600052601160045260246000fd5b6000828210156116bc576116bc61167b565b500390565b600082198211156116d4576116d461167b565b500190565b6000817fffffffffffffffffffffffffffffffffffffffffffffffffffffffffffffffff04831182151516156117115761171161167b565b500290565b60008261174c577f4e487b7100000000000000000000000000000000000000000000000000000000600052601260045260246000fd5b500490565b60006020828403121561176357600080fd5b5051919050565b7f4e487b7100000000000000000000000000000000000000000000000000000000600052603260045260246000fd5b60007fffffffffffffffffffffffffffffffffffffffffffffffffffffffffffffffff8214156117cb576117cb61167b565b5060010190565b6000825160005b818110156117f357602081860181015185830152016117d9565b81811115611802576000828501525b509190910192915050565b60006020828403121561181f57600080fd5b815180151581146105b357600080fdfea26469706673582212205ccc78f31293e48e341a7695646d68b9bfe225a1f6288c14a6253b58f8226d5e64736f6c63430008090033",
    "linkReferences": {},
    "deployedLinkReferences": {}
}